:100000000C943B000C9458000C9458000C9458002D
:100010000C9458000C9458000C9458000C94580000
:100020000C9458000C9458000C9458000C945800F0
:100030000C9458000C9458000C9444040C945800F0
:100040000C9458000C9458000C9402030C94580023
:100050000C9458000C9458000C9458000C945800C0
:100060000C9458000C9458002F024B0267027E0239
:100070009A02AE02ED0211241FBECFEFD8E0DEBF20
:10008000CDBF11E0A0E0B1E0E2E3FAE002C00590EC
:100090000D92AA30B107D9F721E0AAE0B1E001C082
:1000A0001D92AD34B207E1F70E94A2040C9417052B
:1000B0000C940000FC0163FF0CC02BB181E090E0C8
:1000C000038002C0880F991F0A94E2F7822B8BB934
:1000D0000CC02BB181E090E0038002C0880F991F13
:1000E0000A94E2F7809582238BB94BB181E090E0CE
:1000F0009C01018002C0220F331F0A94E2F7242BD7
:100100002BB92BB1018002C0880F991F0A94E2F726
:10011000809582238BB962FF0CC02BB181E090E007
:10012000038002C0880F991F0A94E2F7822B8BB9D3
:100130000CC02BB181E090E0038002C0880F991FB2
:100140000A94E2F7809582238BB94BB181E090E06D
:100150009C01018002C0220F331F0A94E2F7242B76
:100160002BB92BB1018002C0880F991F0A94E2F7C6
:10017000809582238BB961FF0CC02BB181E090E0A8
:10018000038002C0880F991F0A94E2F7822B8BB973
:100190000CC02BB181E090E0038002C0880F991F52
:1001A0000A94E2F7809582238BB94BB181E090E00D
:1001B0009C01018002C0220F331F0A94E2F7242B16
:1001C0002BB92BB1018002C0880F991F0A94E2F766
:1001D000809582238BB960FF0CC02BB181E090E049
:1001E000038002C0880F991F0A94E2F7822B8BB913
:1001F0000CC02BB181E090E0038002C0880F991FF2
:100200000A94E2F7809582238BB94BB181E090E0AC
:100210009C01018002C0220F331F0A94E2F7242BB5
:100220002BB92BB1018002C0880F991F0A94E2F705
:10023000809582238BB90895CF93DF93EC0160E022
:100240000E945A008AE08F87DF91CF9108956F92C4
:100250007F928F92AF92CF92EF920F93CF93DF93D3
:10026000CDB7DEB73C01FC01608341832283038369
:10027000E482C582A68287825AB181E090E09C0127
:1002800002C0220F331F4A95E2F7252B2AB94AB143
:100290009C01038002C0220F331F0A94E2F7242B33
:1002A0002AB937B1AC01058002C0440F551F0A942A
:1002B000E2F7242F2095232327B948B19C0105801C
:1002C00002C0220F331F0A94E2F7242B28B937B15A
:1002D000AC01078002C0440F551F0A94E2F7242F97
:1002E0002095232327B948B19C01078002C0220F23
:1002F000331F0A94E2F7242B28B94BB19C010180EB
:1003000002C0220F331F0A94E2F7242B2BB92BB122
:10031000038002C0880F991F0A94E2F7822B8BB9E1
:1003200081E08087828713861186C3010E941C01A9
:10033000C3010E941C01DF91CF910F91EF90CF90EC
:10034000AF908F907F906F900895FC01718B608BC0
:100350000895CF93DF93EC018885813041F48A853D
:100360008F5F883010F48A870AC01A8608C08A8591
:100370008150883010F48A8702C087E08A87EA8536
:10038000F0E0EF5FFE4F6081CE010E945A008E893F
:100390009F8901969F8B8E8BDF91CF910895CF938C
:1003A000DF93EC018885813049F48A85815088305B
:1003B00010F48A870AC087E08A8707C08A858F5F22
:1003C000883010F48A8701C01A86EA85F0E0EF5F72
:1003D000FE4F6081CE010E945A008E899F8901974D
:1003E0009F8B8E8BDF91CF910895CF93DF93FC018C
:1003F00096858785981780F0833010F08150878725
:10040000168686B190E0078002C0959587950A947C
:10041000E2F780FF04C012C09F5F9687F0C0EF0133
:10042000838581110FC081E08387828715861486BA
:10043000118A108A138A128A818711C0138688E074
:100440008187DDC0E1858E2F90E0FC013197E73098
:10045000F10508F0D4C0EC5CFF4F0C94020580E07D
:1004600090E69D8B8C8B1F8A1E8A86B190E00D8052
:1004700002C0959587950A94E2F780FD06C082E058
:100480008987CE010E941C01BAC084E08987CE0111
:100490000E941C01B4C086B190E00D8002C0959509
:1004A00087950A94E2F780FF0EC083E0898788EA87
:1004B0009DE59D8B8C8B80E090E69F8B8E8BCE0193
:1004C0000E941C019CC0CE010E94CF0198C02C89C3
:1004D0003D898E899F892817390761F484E08987CF
:1004E00080E090E69D8B8C8B1F8A1E8ACE010E9435
:1004F0001C0185C0CE010E94CF0181C086B190E071
:100500000D8002C0959587950A94E2F780FD0EC094
:100510001D8A1C8A1F8A1E8A84EC99E09D878C871D
:1005200085E08987CE010E941C0169C0CE010E942E
:10053000A90165C08C859D85009761F41B8A1A8A84
:100540001D8A1C8A1F8A1E8A86E08987CE010E9426
:100550001C0155C001979D878C8751C04A895B89D2
:10056000403D82E0580768F01B8A1A8A1D8A1C8A5F
:100570001F8A1E8A86E0898788899989892B09F5CF
:1005800028C0888999894817590719F1EC89FD898C
:10059000CF0182969D8B8C8B9A01A9E8B8E80E94C6
:1005A00008059695879596958795969587956FE01A
:1005B000689F9001699F300D11244217530731F451
:1005C00002C0E0E0F0E0B496FD8BEC8B87E0898719
:1005D00016C0CE010E941C0112C02C893D898E8953
:1005E0009F892817390721F0CE010E94A90107C071
:1005F0008A899B8901969B8B8A8B86E08987DF910C
:10060000CF9108951F920F920FB60F9211242F933E
:100610003F938F939F93EF93FF938091C6008093B6
:10062000000180910F01811124C18091100181117D
:100630001CC0809100018130C1F4E0911001F0E014
:1006400080910001EF5EFE4F8083809110018F5FEB
:10065000809310018091000190E090930E018093AF
:100660000D0182E380930C0104C18091100181305F
:1006700009F5809100018230E9F4E0911001F0E089
:1006800080910001EF5EFE4F8083809110018F5FAB
:10069000809310012091000180910D0190910E0135
:1006A000820F911D90930E0180930D0182E3809340
:1006B0000C01DFC080911001823008F462C080918B
:1006C0001001853008F05DC0809110018230D1F4B6
:1006D000E0911001F0E080910001EF5EFE4F808319
:1006E000809110018F5F8093100120910001809113
:1006F0000D0190910E01820F911D90930E01809338
:100700000D013BC0809110018330D1F4E0911001C4
:10071000F0E080910001EF5EFE4F80838091100138
:100720008F5F809310012091000180910D019091C5
:100730000E01820F911D90930E0180930D011DC03B
:10074000809110018430C9F4E0911001F0E08091B3
:100750000001EF5EFE4F8083809110018F5F8093D8
:1007600010012091000180910D0190910E01820FE6
:10077000911D90930E0180930D0182E380930C01F3
:1007800078C080911001853078F180911001873018
:1007900058F580911001853089F4E0911001F0E066
:1007A00080910001EF5EFE4F8083809110018F5F8A
:1007B0008093100182E380930C015BC08091100153
:1007C000863009F056C0E0911001F0E08091000100
:1007D000EF5EFE4F8083809110018F5F8093100148
:1007E00082E380930C0145C0809110018730D9F5D8
:1007F000E0911001F0E080910001EF5EFE4F8083F8
:100800001092100180911601803211F4109216019D
:1008100020910D0130910E0180911601232F332775
:1008200090E028173907A9F420910D0130910E01AD
:1008300080911701332790E02817390751F481E0A0
:1008400080930F011092100110920E0110920D0171
:1008500006C01092100110920E0110920D0182E359
:1008600080930C0106C01092100110920E0110929C
:100870000D01FF91EF919F918F913F912F910F90DB
:100880000FBE0F901F9018951F920F920FB60F92E8
:1008900011242F933F934F935F936F937F938F9385
:1008A0009F93AF93BF93EF93FF9380911B01909120
:1008B0001C01892B49F080911B0190911C0101972B
:1008C00090931C0180931B0180910C01882331F0CF
:1008D00080910C01815080930C0106C01092100190
:1008E00010920E0110920D018DE191E00E94F50130
:1008F00085E391E00E94F501FF91EF91BF91AF91E7
:100900009F918F917F916F915F914F913F912F9127
:100910000F900FBE0F901F9018958CE08093C4002D
:100920001092C50080E98093C10086E08093C200E8
:10093000089582E084BD9FE097BD80936E0083E0C0
:1009400085BD089581E080930F01F8940E94990479
:10095000209A28980E948D04882483940F2EF3E017
:10096000AF2EF02DC12C0F2EF3E0EF2EF02D05E071
:1009700024E042E064E08DE191E00E9427010F2E27
:10098000F3E08F2EF02D6894CC24C1F804E024E02D
:1009900043E064E085E391E00E942701789410929F
:1009A0000F01C1E1D1E01CE3A89580910F018130D6
:1009B000D9F72A818B8190E0129F800D911D11241F
:1009C000803D22E0920728F490930B0180930A0166
:1009D00006C0805D924090930B0180930A01609164
:1009E0000A0170910B018DE191E00E94A5016091D7
:1009F0000A0170910B0185E391E00E94A50110921C
:100A00000F01D2CFEE0FFF1F0590F491E02D099456
:100A1000A29FB001B39FC001A39F700D811D11243F
:100A2000911DB29F700D811D1124911D0895F894A0
:020A3000FFCFF6
:0A0A3200FF0102040801020408009D
:00000001FF
